:100000000C9463000C948B000C948B000C94D8041B
:100010000C94D8040C94D8040C948B000C948B0092
:100020000C948B000C948B000C948B000C948B0024
:100030000C948B000C948B000C948B000C948B0014
:100040000C9436040C948B000C94A6040C9480043D
:100050000C948B000C948B000C948B000C948B00F4
:100060000C948B000C948B0000000008000201002F
:100070000003040700000000000000000000000072
:10008000250028002B0000000000240027002A0083
:1000900000000000230026002900040404040404D6
:1000A0000404020202020202030303030303010227
:1000B00004081020408001020408102001020408F6
:1000C00010205205F00811241FBECFEFD8E0DEBF8C
:1000D000CDBF23E0A0E6B2E001C01D92AA37B2076F
:1000E000E1F712E0A0E0B1E0ECE9F7E102C0059031
:1000F0000D92A036B107D9F710E0C2E6D0E004C0F7
:100100002197FE010E949509C136D107C9F70E94C7
:100110003F060C94C10B0C9400000895CF92DF921F
:10012000EF92FF920F931F93CF93DF936C017A01AD
:100130008B01C0E0D0E0CE15DF0589F0D8016D91CC
:100140008D01D601ED91FC910190F081E02DC60169
:100150000995892B11F47E0102C02196ECCFC701CD
:10016000DF91CF911F910F91FF90EF90DF90CF9093
:100170000895FC01538D448D252F30E0842F90E0AD
:10018000821B930B541710F0CF9608950197089592
:10019000FC01918D828D981761F0828DDF01A80F8F
:1001A000B11D5D968C91928D9F5F9F73928F90E0B1
:1001B00008958FEF9FEF0895FC01918D828D981720
:1001C00031F0828DE80FF11D858D90E008958FEF5D
:1001D0009FEF0895FC01918D228D892F90E0805C26
:1001E0009F4F821B91098F73992708958EEA92E0A1
:1001F0000E94EA0021E0892B09F420E0822F089573
:10020000FC01848DDF01A80FB11DA35ABF4F2C91B3
:10021000848D90E001968F739927848FA689B78982
:100220002C93A089B1898C9180648C93938D848D5B
:10023000981306C00288F389E02D80818F7D80832A
:100240000895EF92FF920F931F93CF93DF93EC01EA
:1002500081E0888F9B8D8C8D981305C0E889F98982
:10026000808185FD24C0F62E0B8D10E00F5F1F4F9F
:100270000F731127E02E8C8DE8120CC00FB607FC0F
:10028000FACFE889F989808185FFF5CFCE010E94F8
:100290000001F1CF8B8DFE01E80FF11DE35AFF4FF6
:1002A000F0820B8FEA89FB898081806207C0EE892A
:1002B000FF896083E889F98980818064808381E097
:1002C00090E0DF91CF911F910F91FF90EF900895F3
:1002D000CF93DF93EC01888D8823C9F0EA89FB89ED
:1002E000808185FD05C0A889B9898C9186FD0FC0E4
:1002F0000FB607FCF5CF808185FFF2CFA889B989B9
:100300008C9185FFEDCFCE010E940001E7CFDF91F8
:10031000CF91089580E090E0892B29F00E94F600AB
:1003200081110C940000089590E0FC01E859FF4F02
:100330003491FC01E255FF4F2491FC01E656FF4F3A
:10034000E491EE2309F43BC0332339F1333091F0CB
:1003500038F43130A9F0323001F584B58F7D12C008
:10036000373091F03830A1F03430B9F4809180000A
:100370008F7D03C0809180008F77809380000DC0B7
:1003800084B58F7784BD09C08091B0008F7703C09A
:100390008091B0008F7D8093B000F0E0EE0FFF1FE2
:1003A000E458FF4FA591B4918FB7F894EC91611187
:1003B00003C020952E2301C02E2B2C938FBF0895B0
:1003C0002091A2023091A3022817390771F490916D
:1003D000A0028091A102981741F0E091A002F0E004
:1003E000E05AFD4F808190E008958FEF9FEF0895D0
:1003F00008951F93CF93DF93DC015C962D913C9180
:100400005D972115310539F481E090E013969C93B6
:100410008E9312973DC05196ED91FC915297509654
:100420009C915097892F80951FB75E964C915E974F
:1004300041FB772770F941FD6095F894408177235F
:1004400011F0492B01C048234083E9012197F1F7BE
:1004500048E0508160FF02C0592B01C058235083EF
:10046000E9012197F1F76695415099F7772321F03B
:1004700090818923808303C08081982B90831FBF44
:100480005C968D919C915D970197F1F721E030E0AA
:10049000C901DF91CF911F9108952091A20230915F
:1004A000A3022817390771F48091A1022091A002BC
:1004B00090E0805C9F4F821B910960E470E00E9495
:1004C0004B09089580E090E008952091A2023091B8
:1004D000A30228173907B9F49091A0028091A102D4
:1004E000981789F0E091A002F0E0E05AFD4F80817A
:1004F0002091A00230E02F5F3F4F2F7333272093CE
:10050000A00290E008958FEF9FEF0895089580E096
:1005100090E00895009769F0FC0101900020E9F750
:100520003197AF01481B590BBC018EEA92E00C9445
:100530008E0080E090E00895CF93DF93E1E5F3E053
:1005400044815581608171818EEA92E00E948E0023
:10055000EC018AE291E00E948A028C0F9D1FDF91DC
:10056000CF910895CF93DF930E948A02EC018AE233
:1005700091E00E948A028C0F9D1FDF91CF91089518
:10058000FC01808191810C94300ACF93DF93EC01C0
:1005900080915103909152030097C9F0688179814D
:1005A0006115710591F040915303509154032C81D2
:1005B0003D814217530748F00E94A00B8C819D811A
:1005C000909356038093550318C00E94300A888187
:1005D000998190935203809351038A819B819093D8
:1005E0005403809353038C819D8190935603809391
:1005F0005503198218821B821A821D821C82DF9188
:10060000CF910895CF93DF93FC0124813581232B73
:1006100071F0FB01DC01CD91DC9160817181CE0133
:100620000E94A70B009719F08C1B9D0B02C08FEF47
:100630009FEFDF91CF9108950E94920B0F931F932C
:10064000CF93DF93EC0188819981009729F02A816B
:100650003B812617370788F48B016F5F7F4F0E941D
:10066000C80A009761F0998388831B830A832C81D1
:100670003D81232B11F4FC01108281E001C080E058
:10068000DF91CF911F910F910895EF92FF920F93F9
:100690001F93CF93DF93FC01248135816115710590
:1006A00011F480E019C041155105A9F07B01EC015E
:1006B0008A01020F131FB8010E941E03882389F3C9
:1006C000288139818C819D81B701820F931F0E94FF
:1006D000A00B1D830C8381E0DF91CF911F910F91BF
:1006E000FF90EF900895CF93DF9300D0CDB7DEB7A2
:1006F00089831A8241E050E0BE016F5F7F4F81E540
:1007000093E00E9445030F900F90DF91CF910895E1
:10071000FB0144815581608171810C944503EF9206
:10072000FF920F931F93CF93DF93EC017B018A011C
:10073000BA010E941E032881398181110DC0211543
:10074000310519F0C9010E94300A198218821D82F0
:100750001C821B821A8206C01D830C83B701C9014B
:100760000E94A00BCE01DF91CF911F910F91FF90BE
:10077000EF900895CF93DF93EC016115710559F067
:10078000FB0101900020E9F73197AF01461B570BA1
:100790000E948F030CC088819981009711F00E94FC
:1007A000300A198218821D821C821B821A82CE0195
:1007B000DF91CF910895FC01118210821382128281
:1007C000158214826115710551F0FB010190002022
:1007D000E9F73197AF01461B570B0C948F0308952F
:1007E000BF92CF92DF92EF92FF920F931F93CF931E
:1007F000DF937C016B018A01E9012417350720F49E
:10080000812F8901C42FD82F6CE271E0C7010E94AB
:10081000DB03D60114968D919C9115970817190743
:10082000D0F48C179D0708F4EC01D601ED91FC91F2
:100830001197EC0FFD1FB08010824D915C91BA01B1
:10084000600F711FC7010E94BA03D601ED91FC91A0
:10085000EC0FFD1FB082C701DF91CF911F910F9167
:10086000FF90EF90DF90CF90BF9008951F920F926E
:100870000FB60F9211242F933F938F939F93AF93B3
:10088000BF938091AA029091AB02A091AC02B0916B
:10089000AD023091A90223E0230F2D3720F40196F9
:1008A000A11DB11D05C026E8230F0296A11DB11D93
:1008B0002093A9028093AA029093AB02A093AC026A
:1008C000B093AD028091A5029091A602A091A702DB
:1008D000B091A8020196A11DB11D8093A50290932D
:1008E000A602A093A702B093A802BF91AF919F91D7
:1008F0008F913F912F910F900FBE0F901F901895E1
:100900001F920F920FB60F9211242F933F934F9384
:100910005F936F937F938F939F93AF93BF93EF9367
:10092000FF938EEA92E00E940001FF91EF91BF9148
:10093000AF919F918F917F916F915F914F913F9177
:100940002F910F900FBE0F901F9018951F920F922E
:100950000FB60F9211242F938F939F93EF93FF93D2
:10096000E091BE02F091BF028081E091C402F0915B
:10097000C50282FD12C090818091C7028F5F8F7384
:100980002091C802821751F0E091C702F0E0E255D1
:10099000FD4F958F8093C70201C08081FF91EF9139
:1009A0009F918F912F910F900FBE0F901F901895D0
:1009B0001F920F920FB60F9211242F933F934F93D4
:1009C0005F936F937F938F939F93AF93BF93EF93B7
:1009D000FF93E091A202F091A302309709F451C075
:1009E000968DA685B785858591FF04C09C91892346
:1009F00029F447C09C91892309F043C0A389B48995
:100A00009C918589809589238C9386899789019704
:100A1000F1F7608D718DA685B785558538E020E0AA
:100A2000CB010197F1F7822F90E095958795282FBC
:100A30004C91452309F02068315091F7868D81FD56
:100A400020958091A10290E001968F7399273091B3
:100A5000A002381749F0A091A102B0E0A05ABD4F02
:100A60002C938093A10203C0868D8160868F828D36
:100A7000938D0197F1F7A389B4899C918589892B7E
:100A80008C93FF91EF91BF91AF919F918F917F9147
:100A90006F915F914F913F912F910F900FBE0F90EB
:100AA0001F901895CF93DF931092B1021092B0026D
:100AB00088EE93E0A0E0B0E08093B2029093B3029E
:100AC000A093B402B093B5022AE031E03093AF02B4
:100AD0002093AE0225EC30E03093BB022093BA02A3
:100AE00024EC30E03093BD022093BC0220EC30E0D7
:100AF0003093BF022093BE0221EC30E03093C1025C
:100B00002093C00222EC30E03093C3022093C20253
:100B100026EC30E03093C5022093C4021092C70245
:100B20001092C8021092C9021092CA0210925A037F
:100B30001092590380935B0390935C03A0935D0331
:100B4000B0935E038CE191E0909358038093570338
:100B500010926E0310926D031092700310926F0347
:100B60001092720310927103109274031092730327
:100B7000609175036E7F6D7F6093750366956170FC
:100B800081E0682786E00E949401E4EBF0E0249184
:100B9000E0EAF0E08491882399F090E0880F991FB3
:100BA000FC01EA57FF4FA591B491FC01E458FF4FB7
:100BB000859194918FB7F894EC91E22BEC938FBFD1
:100BC000E4EBF0E0E491E0936703E0EAF0E0E49125
:100BD000F0E0EE0FFF1FE458FF4F85919491909342
:100BE000690380936803E3EBF0E02491EFE9F0E020
:100BF00084918823C1F090E0880F991FFC01EA5787
:100C0000FF4FC591D491FC01E458FF4FA591B491D9
:100C10009FB7F8948881E22FE0958E2388838C918A
:100C2000E823EC939FBF8091750381FD04C061E0D0
:100C300085E00E94940185E080936303E3EBF0E09C
:100C4000E491E0936403EFE9F0E0E491F0E0EE0F6B
:100C5000FF1FE057FF4F8591949190936603809317
:100C600065036CE271E081E593E00E94DB036CE2D6
:100C700071E08BE493E0DF91CF910C94DB03CF9391
:100C8000DF93CDB7DEB7A1970FB6F894DEBF0FBEE6
:100C9000CDBF789484B5826084BD84B5816084BD05
:100CA00085B5826085BD85B5816085BD80916E000A
:100CB000816080936E00109281008091810082603B
:100CC0008093810080918100816080938100809178
:100CD00080008160809380008091B1008460809367
:100CE000B1008091B00081608093B00080917A0063
:100CF000846080937A0080917A00826080937A0089
:100D000080917A00816080937A0080917A00806877
:100D100080937A001092C100E091BE02F091BF0270
:100D200082E08083E091BA02F091BB021082E091F0
:100D3000BC02F091BD028FEC80831092C602E0915C
:100D4000C202F091C30286E08083E091C002F0917C
:100D5000C102808180618083E091C002F091C10274
:100D6000808188608083E091C002F091C10280811F
:100D700080688083E091C002F091C10280818F7D04
:100D800080838DE291E00E94B20210927203109271
:100D900071031092700310926F0310926E03109201
:100DA0006D038DE991E090937403809373039091A8
:100DB0006303963108F057C02DEB30E030936E039B
:100DC00020936D032BE931E03093700320936F0380
:100DD0002CE231E03093720320937103209168007C
:100DE000983050F031E09E3008F430E081E001C0EE
:100DF000880F3A95EAF701C084E0822B809368005F
:100E0000983038F09E3040F0963148F020E030E0E5
:100E100008C02DE630E005C02BE630E002C02CE62D
:100E200030E030936B0320936A03983030F481E014
:100E300001C0880F9A95EAF70EC0292F30E09E3046
:100E400018F42850310902C02E50310981E001C048
:100E5000880F2A95EAF780936C0380917303909131
:100E600074030197F1F78091710390917203892BBC
:100E700049F1E091A202F091A30283E0E735F8077F
:100E800009F1309739F0A389B4899C9185898095BF
:100E900089238C93809175038E7F809375031092C4
:100EA000A1021092A00287E593E09093A3028093A1
:100EB000A202E0916A03F0916B03908180916C0330
:100EC000892B80838AE391E00E94B2028AE0C82ED7
:100ED000D12CE12CF12C87E593E00E944D021816ED
:100EE000190664F587E593E00E9465028093A402E9
:100EF0000E9473030E949C028091550390915603B7
:100F00009C0140E050E019A28E010F5D1F4FCA0105
:100F1000B901A70196010E945F09605DF801629323
:100F20008F01211531054105510589F7CF010E9437
:100F30008A028AE291E00E948A02CDCF2DE030E061
:100F400041E050E061E573E0CE0101960E94F003BC
:100F5000CE0101960E94C502CE0101960E94C002F8
:100F600065E471E0CE0101960E94DB03BE016F5F74
:100F70007F4F81E593E00E9402038C01CE01019630
:100F80000E94C00217FD48C082E591E00E948A02DB
:100F90006CE271E081E593E00E94BA038091550311
:100FA000909156030D9780F487E593E00E944D02DF
:100FB000181619069CF787E593E00E946502809356
:100FC000A4020E947303F0CF61E573E08BE493E029
:100FD0000E94020397FD03C088E791E0B9C08FE942
:100FE00091E00E948A020E949C0261E573E08BE41A
:100FF00093E00E94880341E050E066EA71E08BE4F0
:1010000093E00E9445036CE271E081E593E00E9469
:10101000BA0388EA91E0D9C066EC71E0CE0101968E
:101020000E94DB03BE016F5F7F4F81E593E00E946A
:1010300002038C01CE0101960E94C00217FD91C0EF
:101040006CE271E081E593E00E94BA0383ED91E0E8
:101050000E948A0280915503909156030D9780F467
:1010600087E593E00E944D02181619069CF787E564
:1010700093E00E9465028093A4020E947303F0CF64
:101080002DE030E041E050E061E573E0CE010196F3
:101090000E94F003CE0101960E94C502CE01019686
:1010A0000E94C00261E573E08BE493E00E940203BA
:1010B00097FD4CC00E949C0288EF91E00E94B20212
:1010C00061E573E08BE493E00E9402038C016CE223
:1010D00071E081E593E00E94BA03980140E050E09E
:1010E0006BE473E0CE0101960E94F003BE016F5FD6
:1010F0007F4F81E593E00E948803CE0101960E9414
:10110000C00220914F0330915003A801415F5F4F0F
:101110006BE473E0CE0101960E94F003BE016F5FA5
:101120007F4F81E593E00E948803CE0101960E94E3
:10113000C0026CE271E08BE493E00E94BA0361E5C7
:1011400073E08BE493E00E94880304C080E292E0A5
:101150000E94B2026CE271E081E593E00E94BA0362
:1011600036C080915503909156030B9780F12DE086
:1011700030E041E050E061E573E0CE0101960E946D
:10118000F003CE0101960E94C502CE0101960E9495
:10119000C00280914F0390915003892BA1F00091E0
:1011A0004B0310914C036091510370915203C8019D
:1011B0000E94A70B009739F0801B910B97FD03C08D
:1011C00081E492E002C081E592E00E94B2026CE20A
:1011D00071E081E593E00E94BA030E948A017BCE10
:1011E0008BE493E00E94C00281E593E00E94C0027C
:1011F0008CE191E090935803809357038091A20271
:101200009091A3028755934071F4E0916A03F091A5
:101210006B03908180916C03809589238083109269
:10122000A3021092A20208952F923F924F925F92D2
:101230006F927F928F929F92AF92BF92CF92DF92E6
:10124000EF92FF920F931F93CF93DF93CDB7DEB74B
:10125000CA1BDB0B0FB6F894DEBF0FBECDBF0994DF
:101260002A88398848885F846E847D848C849B8436
:10127000AA84B984C884DF80EE80FD800C811B8144
:10128000AA81B981CE0FD11D0FB6F894DEBF0FBE73
:10129000CDBFED01089597FB072E16F4009407D0FB
:1012A00077FD09D00E94810907FC05D03EF4909596
:1012B00081959F4F0895709561957F4F0895A1E2A4
:1012C0001A2EAA1BBB1BFD010DC0AA1FBB1FEE1FC0
:1012D000FF1FA217B307E407F50720F0A21BB30B0B
:1012E000E40BF50B661F771F881F991F1A9469F787
:1012F00060957095809590959B01AC01BD01CF01E3
:101300000895AA1BBB1B51E107C0AA1FBB1FA6174C
:10131000B70710F0A61BB70B881F991F5A95A9F79E
:1013200080959095BC01CD010895EE0FFF1F0590AB
:10133000F491E02D0994CF93DF938230910510F45E
:1013400082E090E0E0917803F091790320E030E0D2
:10135000C0E0D0E0309711F1408151814817590722
:10136000C0F04817590761F482819381209719F0E2
:101370009B838A832BC0909379038093780326C044
:101380002115310519F04217530718F49A01BE01CF
:10139000DF01EF010280F381E02DDCCF2115310563
:1013A00009F1281B390B2430310590F412968D91E8
:1013B0009C9113976115710521F0FB019383828342
:1013C00004C09093790380937803FD01329644C062
:1013D000FD01E20FF31F81939193225031092D9368
:1013E0003C933AC02091760330917703232B41F44C
:1013F000209102013091030130937703209376030B
:1014000020910001309101012115310541F42DB7E2
:101410003EB74091040150910501241B350BE0912A
:101420007603F0917703E217F307A0F42E1B3F0B2E
:101430002817390778F0AC014E5F5F4F2417350746
:1014400048F04E0F5F1F50937703409376038193CC
:10145000919302C0E0E0F0E0CF01DF91CF910895D9
:101460000F931F93CF93DF93009709F48CC0FC0177
:10147000329713821282009178031091790301153B
:10148000110581F420813181820F931F2091760311
:10149000309177032817390779F5F0937703E093B4
:1014A000760371C0D80140E050E0AE17BF0750F49A
:1014B00012962D913C911397AD012115310509F13B
:1014C000D901F3CF9D01DA013383228360817181D9
:1014D000860F971F8217930769F4EC0128813981E1
:1014E000260F371F2E5F3F4F318320838A819B81D8
:1014F00093838283452B29F4F0937903E093780357
:1015000042C01396FC93EE931297ED0149915991C5
:101510009E01240F351FE217F30771F4808191813A
:10152000840F951F029611969C938E9382819381CE
:1015300013969C938E931297E0E0F0E0D8011296F8
:101540008D919C911397009719F0F8018C01F6CFBB
:101550008D919C9198012E5F3F4F820F931F209198
:101560007603309177032817390769F4309729F407
:10157000109279031092780302C0138212821093A2
:10158000770300937603DF91CF911F910F91089518
:10159000A0E0B0E0EEECFAE00C941809EC01009742
:1015A00021F4CB010E949B09B8C0FC01E60FF71F94
:1015B0009C0122503109E217F30708F4ACC0D901AD
:1015C0000D911C91119706171707B0F00530110502
:1015D00008F49FC0C80104978617970708F499C0BC
:1015E00002501109061B170B019311936D937C9305
:1015F000CF010E94300A8DC05B01A01AB10A4C01D4
:10160000800E911EA0917803B091790340E050E0E4
:10161000E12CF12C109709F44AC0A815B905D1F5B1
:101620006D907C901197630182E0C80ED11CCA14A2
:10163000DB0480F1A3014A195B096A0182E0C80E4C
:10164000D11C1296BC9012971396AC91B5E0CB16B4
:10165000D10440F0B282A38351834083D9016D93BA
:101660007C930AC00E5F1F4FC301800F911FF901C9
:1016700091838083EB2DFA2FE114F10431F0D7012F
:101680001396FC93EE93129744C0F0937903E09382
:1016900078033FC08D919C9111974817590708F422
:1016A000AC017D0112960D90BC91A02DB3CF80911D
:1016B00076039091770388159905E1F4461757074B
:1016C000C8F48091000190910101009741F48DB719
:1016D0009EB74091040150910501841B950BE817BA
:1016E000F907C8F4F0937703E0937603F901718367
:1016F00060830FC0CB010E949B097C01009759F0C9
:10170000A801BE010E94970BCE010E94300AC701BA
:1017100004C0CE0102C080E090E0CDB7DEB7EEE0BD
:101720000C94340981E090E0F8940C94C10BFB0117
:10173000DC0102C001900D9241505040D8F708954D
:10174000FB01DC0101900D920020E1F70895FB01FF
:1017500051915523A9F0BF01DC014D91451741116D
:10176000E1F759F4CD010190002049F04D91401569
:101770004111C9F3FB014111EFCF81E090E00197E6
:10178000089510E0C2E6D0E004C0FE010E94950971
:0C1790002196C336D107C9F7F894FFCFAB
:10179C0000007A0380000000000021018E00B900D7
:1017AC006801EA00C800DC0000000000F9018E00AE
:1017BC008702F8014D026502E0010D0A00536572C3
:1017CC0069616C205265616479005246494420522B
:1017DC006561647900323130303134444645333000
:1017EC003900576861742054414720646F20796F29
:1017FC00752077616E6E61206772616E7420616313
:10180C00636573733F3A20000A4163636573732009
:10181C00616C7265616479206772616E74656420B5
:10182C00666F72207468697320636172642E004362
:10183C006172643A20002C00416363657373206706
:10184C0072616E74656420666F72207468697320AF
:10185C00636172642E00323130303134453242448F
:10186C00364100576861742054414720646F2079D9
:10187C006F752077616E6E612064656E792061638F
:10188C00636573733F3A200054414720666F756E51
:10189C00642E2041636365737320666F72207468D5
:1018AC00697320636172642064656E6965642E00DF
:1018BC000A544147206E6F7420666F756E64206FFA
:1018CC007220616C72656164792064656E6965640F
:1018DC0000416363657373206772616E7465642E77
:1018EC00004163636573732064656E6965642E00E3
:00000001FF
