:100000000C945D000C9485000C9485000C94850084
:100010000C9485000C9485000C9485000C9485004C
:100020000C9485000C9485000C9485000C9485003C
:100030000C9485000C9485000C9485000C9485002C
:100040000C9489020C9485000C94F9020C94D30250
:100050000C9485000C9485000C9485000C9485000C
:100060000C9485000C9485000000000024002700FB
:100070002A0000000000250028002B0004040404CE
:100080000404040402020202020203030303030342
:10009000010204081020408001020408102001021F
:1000A00004081020000000080002010000030407FB
:1000B00000000000000000004D0411241FBECFEF1F
:1000C000D8E0DEBFCDBF21E0A0E2B1E001C01D92CB
:1000D000AA3CB207E1F711E0A0E0B1E0ECE9FDE0F5
:1000E00002C005900D92A032B107D9F710E0CDE51E
:1000F000D0E004C02197FE010E94B104CC35D107A5
:10010000C9F70E942B030C94CC060C940000EDEA76
:10011000F0E02491E9E9F0E09491E5E8F0E0E49181
:10012000EE2309F43BC0222339F1233091F038F457
:100130002130A9F0223001F524B52F7D12C02730DF
:1001400091F02830A1F02430B9F4209180002F7D67
:1001500003C0209180002F77209380000DC024B52C
:100160002F7724BD09C02091B0002F7703C02091C4
:10017000B0002F7D2093B000F0E0EE0FFF1FEE588F
:10018000FF4FA591B4912FB7F894EC91811103C062
:1001900090959E2301C09E2B9C932FBF08952FB74F
:1001A000F8948091250190912601A0912701B091AA
:1001B00028012FBF8093310190933201A093330126
:1001C000B0933401E0912901F0912A010284F38572
:1001D000E02D89E291E0099597FF26C02FB7F894AA
:1001E0008091250190912601A0912701B0912801CD
:1001F0002FBF4091310150913201609133017091D4
:100200003401841B950BA60BB70B40912D01509127
:100210002E0160912F017091300184179507A60778
:10022000B70780F28FEF9FEF08950895CF92DF9286
:10023000EF92FF920F931F93CF93DF936C017A019C
:100240008B01C0E0D0E0CE15DF0589F0D8016D91BB
:100250008D01D601ED91FC910190F081E02DC60158
:100260000995892B11F47E0102C02196ECCFC701BC
:10027000DF91CF911F910F91FF90EF90DF90CF9082
:100280000895089580E090E00895FC01538D448D19
:10029000252F30E0842F90E0821B930B541710F031
:1002A000CF96089501970895FC01918D828D98173E
:1002B00061F0828DDF01A80FB11D5D968C91928D4A
:1002C0009F5F9F73928F90E008958FEF9FEF089547
:1002D000FC01918D828D981731F0828DE80FF11D10
:1002E000858D90E008958FEF9FEF0895FC01918D2B
:1002F000228D892F90E0805C9F4F821B91098F7324
:100300009927089589E291E00E94760121E0892BE6
:1003100009F420E0822F0895FC01848DDF01A80FED
:10032000B11DA35ABF4F2C91848D90E001968F731D
:100330009927848FA689B7892C93A089B1898C913C
:1003400080648C93938D848D981306C00288F38902
:10035000E02D80818F7D80830895EF92FF920F932F
:100360001F93CF93DF93EC0181E0888F9B8D8C8D61
:10037000981305C0E889F989808185FD24C0F62E8F
:100380000B8D10E00F5F1F4F0F731127E02E8C8D28
:10039000E8120CC00FB607FCFACFE889F989808112
:1003A00085FFF5CFCE010E948C01F1CF8B8DFE0130
:1003B000E80FF11DE35AFF4FF0820B8FEA89FB89AA
:1003C0008081806207C0EE89FF896083E889F989AE
:1003D00080818064808381E090E0DF91CF911F91E4
:1003E0000F91FF90EF900895CF93DF93EC01888DEC
:1003F0008823C9F0EA89FB89808185FD05C0A88929
:10040000B9898C9186FD0FC00FB607FCF5CF8081AE
:1004100085FFF2CFA889B9898C9185FFEDCFCE01F8
:100420000E948C01E7CFDF91CF91089580E090E0AA
:10043000892B29F00E94820181110C9400000895FB
:100440000E94AE060F931F93CF93DF93EC01888138
:100450009981009729F02A813B812617370788F474
:100460008B016F5F7F4F0E94E405009761F09983D5
:1004700088831B830A832C813D81232B11F4FC018B
:10048000108281E001C080E0DF91CF911F910F9138
:100490000895EF92FF920F931F93CF93DF93EC0198
:1004A000198218821B821A821D821C8261157105B5
:1004B00049F18B01FB0101900020E9F731977F01A1
:1004C000E61AF70AB7010E942202288139818111B8
:1004D0000DC02115310519F0C9010E944C05198282
:1004E00018821D821C821B821A820CC0FD82EC8243
:1004F000B801C901DF91CF911F910F91FF90EF904B
:100500000C94C506DF91CF911F910F91FF90EF9052
:1005100008951F920F920FB60F9211242F933F93BD
:100520008F939F93AF93BF93809125019091260164
:10053000A0912701B09128013091240123E0230FDD
:100540002D3720F40196A11DB11D05C026E8230F0B
:100550000296A11DB11D2093240180932501909343
:100560002601A0932701B09328018091200190914A
:100570002101A0912201B09123010196A11DB11D7D
:100580008093200190932101A0932201B093230135
:10059000BF91AF919F918F913F912F910F900FBE7F
:1005A0000F901F9018951F920F920FB60F92112463
:1005B0002F933F934F935F936F937F938F939F936B
:1005C000AF93BF93EF93FF9389E291E00E948C0178
:1005D000FF91EF91BF91AF919F918F917F916F911B
:1005E0005F914F913F912F910F900FBE0F901F90F1
:1005F00018951F920F920FB60F9211242F938F937D
:100600009F93EF93FF93E0913901F0913A0180813C
:10061000E0913F01F091400182FD12C090818091F4
:1006200042018F5F8F7320914301821751F0E09157
:100630004201F0E0E75DFE4F958F8093420101C0DB
:100640008081FF91EF919F918F912F910F900FBE1D
:100650000F901F901895CF93DF93CDB7DEB72E97ED
:100660000FB6F894DEBF0FBECDBF789484B582601C
:1006700084BD84B5816084BD85B5826085BD85B546
:10068000816085BD80916E00816080936E001092C4
:10069000810080918100826080938100809181003F
:1006A00081608093810080918000816080938000D0
:1006B0008091B10084608093B1008091B00081602E
:1006C0008093B00080917A00846080937A0080915A
:1006D0007A00826080937A0080917A0081608093B2
:1006E0007A0080917A00806880937A001092C1002D
:1006F000E0913901F0913A0182E08083E091350187
:10070000F09136011082E0913701F09138018FECC1
:10071000808310924101E0913D01F0913E0186E01D
:100720008083E0913B01F0913C0180818061808376
:10073000E0913B01F0913C01808188608083E091F1
:100740003B01F0913C01808180688083E0913B0116
:10075000F0913C0180818F7D8083E9E9F0E0249174
:10076000E5E8F0E08491882399F090E0880F991FE4
:10077000FC01E859FF4FA591B491FC01EE58FF4FE1
:10078000859194918FB7F894EC91E22BEC938FBF05
:100790006EE171E0CE0107960E94490289E291E084
:1007A0000E947601181619060CF070C06EE171E017
:1007B000CE0101960E9449020E94CF0097FD1EC003
:1007C0008A309105D9F08D871E860D811E810F5FBD
:1007D0001F4FB801CE0101960E942202882361F3C7
:1007E00029813A818D819E81BE01635F7F4F820F97
:1007F000931F0E94C5061E830D83DECF8F819885CF
:100800000097A9F069817A816115710571F04985B8
:100810005A852D813E814217530738F00E94C50644
:100820008D819E819C878B8712C00E944C05898197
:100830009A8198878F838B819C819A8789878D8104
:100840009E819C878B871A8219821C821B821E8242
:100850001D8289819A810E944C058B859C85892BFC
:10086000A9F00F81188568E171E0C8010E94BC06FB
:10087000892B11F481E008C06BE171E0C8010E948E
:10088000BC06892B19F480E00E9487008F8198852F
:100890000E944C050E9416027BCFE9E2F1E0138230
:1008A000128288EE93E0A0E0B0E084839583A68373
:1008B000B7838AE091E09183808385EC90E095870F
:1008C000848784EC90E09787868780EC90E0918B1A
:1008D000808B81EC90E0938B828B82EC90E0958B07
:1008E000848B86EC90E0978B868B118E128E138E04
:1008F000148E08952F923F924F925F926F927F9243
:100900008F929F92AF92BF92CF92DF92EF92FF921F
:100910000F931F93CF93DF93CDB7DEB7CA1BDB0BCB
:100920000FB6F894DEBF0FBECDBF09942A88398870
:1009300048885F846E847D848C849B84AA84B98477
:10094000C884DF80EE80FD800C811B81AA81B98183
:10095000CE0FD11D0FB6F894DEBF0FBECDBFED0197
:100960000895EE0FFF1F0590F491E02D0994CF93A9
:10097000DF938230910510F482E090E0E091C801AD
:10098000F091C90120E030E0C0E0D0E0309711F1F3
:100990004081518148175907C0F04817590761F441
:1009A00082819381209719F09B838A832BC0909337
:1009B000C9018093C80126C02115310519F04217DD
:1009C000530718F49A01BE01DF01EF010280F381A1
:1009D000E02DDCCF2115310509F1281B390B24301E
:1009E000310590F412968D919C91139761157105C4
:1009F00021F0FB019383828304C09093C90180930B
:100A0000C801FD01329644C0FD01E20FF31F81933E
:100A10009193225031092D933C933AC02091C60105
:100A20003091C701232B41F4209102013091030141
:100A30003093C7012093C60120910001309101013C
:100A40002115310541F42DB73EB740910401509175
:100A50000501241B350BE091C601F091C701E21797
:100A6000F307A0F42E1B3F0B2817390778F0AC01D1
:100A70004E5F5F4F2417350748F04E0F5F1F5093AE
:100A8000C7014093C6018193919302C0E0E0F0E07A
:100A9000CF01DF91CF9108950F931F93CF93DF93F1
:100AA000009709F48CC0FC013297138212820091E6
:100AB000C8011091C9010115110581F4208131810E
:100AC000820F931F2091C6013091C7012817390763
:100AD00079F5F093C701E093C60171C0D80140E0F9
:100AE00050E0AE17BF0750F412962D913C9113972A
:100AF000AD012115310509F1D901F3CF9D01DA01CD
:100B00003383228360817181860F971F8217930739
:100B100069F4EC0128813981260F371F2E5F3F4F82
:100B2000318320838A819B8193838283452B29F49F
:100B3000F093C901E093C80142C01396FC93EE9371
:100B40001297ED01499159919E01240F351FE2172B
:100B5000F30771F480819181840F951F029611969D
:100B60009C938E938281938113969C938E9312977C
:100B7000E0E0F0E0D80112968D919C9113970097D8
:100B800019F0F8018C01F6CF8D919C9198012E5FA0
:100B90003F4F820F931F2091C6013091C701281744
:100BA000390769F4309729F41092C9011092C801ED
:100BB00002C0138212821093C7010093C601DF9115
:100BC000CF911F910F910895A0E0B0E0EAEEF5E01B
:100BD0000C947E04EC01009721F4CB010E94B70431
:100BE000B8C0FC01E60FF71F9C0122503109E21743
:100BF000F30708F4ACC0D9010D911C9111970617A9
:100C00001707B0F00530110508F49FC0C80104971C
:100C10008617970708F499C002501109061B170B95
:100C2000019311936D937C93CF010E944C058DC06D
:100C30005B01A01AB10A4C01800E911EA091C8015F
:100C4000B091C90140E050E0E12CF12C109709F47B
:100C50004AC0A815B905D1F56D907C901197630134
:100C600082E0C80ED11CCA14DB0480F1A3014A192A
:100C70005B096A0182E0C80ED11C1296BC901297E3
:100C80001396AC91B5E0CB16D10440F0B282A383A9
:100C900051834083D9016D937C930AC00E5F1F4F2F
:100CA000C301800F911FF90191838083EB2DFA2FEF
:100CB000E114F10431F0D7011396FC93EE931297EF
:100CC00044C0F093C901E093C8013FC08D919C914D
:100CD00011974817590708F4AC017D0112960D9041
:100CE000BC91A02DB3CF8091C6019091C70188150A
:100CF0009905E1F446175707C8F4809100019091D7
:100D00000101009741F48DB79EB7409104015091C5
:100D10000501841B950BE817F907C8F4F093C70188
:100D2000E093C601F901718360830FC0CB010E947B
:100D3000B7047C01009759F0A801BE010E94B306D8
:100D4000CE010E944C05C70104C0CE0102C080E064
:100D500090E0CDB7DEB7EEE00C949A0481E090E02D
:100D6000F8940C94CC06FB01DC0102C001900D92BA
:100D700041505040D8F70895FB01DC018D9101905E
:100D800080190110D9F3990B0895FB01DC01019042
:0C0D90000D920020E1F70895F894FFCFC9
:100D9C000000CA01800000000000AD0116014501F1
:100DAC00F4017601540168014F4E004F4646000095
:107E0000112484B714BE81FFF0D085E080938100F7
:107E100082E08093C00088E18093C10086E0809377
:107E2000C20080E18093C4008EE0C9D0259A86E02C
:107E300020E33CEF91E0309385002093840096BBD3
:107E4000B09BFECF1D9AA8958150A9F7CC24DD24C4
:107E500088248394B5E0AB2EA1E19A2EF3E0BF2EE7
:107E6000A2D0813461F49FD0082FAFD0023811F036
:107E7000013811F484E001C083E08DD089C08234E0
:107E800011F484E103C0853419F485E0A6D080C0E4
:107E9000853579F488D0E82EFF2485D0082F10E0AE
:107EA000102F00270E291F29000F111F8ED06801E7
:107EB0006FC0863521F484E090D080E0DECF843638
:107EC00009F040C070D06FD0082F6DD080E0C81688
:107ED00080E7D80618F4F601B7BEE895C0E0D1E017
:107EE00062D089930C17E1F7F0E0CF16F0E7DF06D8
:107EF00018F0F601B7BEE89568D007B600FCFDCFD4
:107F0000A601A0E0B1E02C9130E011968C91119780
:107F100090E0982F8827822B932B1296FA010C0160
:107F200087BEE89511244E5F5F4FF1E0A038BF0790
:107F300051F7F601A7BEE89507B600FCFDCF97BE46
:107F4000E89526C08437B1F42ED02DD0F82E2BD052
:107F50003CD0F601EF2C8F010F5F1F4F84911BD097
:107F6000EA94F801C1F70894C11CD11CFA94CF0C13
:107F7000D11C0EC0853739F428D08EE10CD085E9AC
:107F80000AD08FE07ACF813511F488E018D01DD067
:107F900080E101D065CF982F8091C00085FFFCCF94
:107FA0009093C60008958091C00087FFFCCF809118
:107FB000C00084FD01C0A8958091C6000895E0E648
:107FC000F0E098E1908380830895EDDF803219F02E
:107FD00088E0F5DFFFCF84E1DECF1F93182FE3DFCA
:107FE0001150E9F7F2DF1F91089580E0E8DFEE27F6
:047FF000FF270994CA
:027FFE00040479
:0400000300007E007B
:00000001FF
